:1000000037810000930200001303000063D86200F0
:1000100023A0020093824200E3CC62FEEF00C00AFC
:100020006F000000130101FE232E1100232C81001C
:100030001304010293070500A307F4FE1300000058
:10004000B70700109387470083A70700E39A07FECE
:10005000B70700100347F4FE23A0E70013000000D9
:100060008320C10103248101130101026780000084
:10007000130101FE232E1100232C81001304010221
:100080002326A4FE6F0000028327C4FE83C7070057
:1000900013850700EFF01FF98327C4FE938717002D
:1000A0002326F4FE8327C4FE83C70700E39E07FCD4
:1000B00013000000130000008320C101032481010C
:1000C0001301010267800000130101FE232E1100BD
:1000D000232C810013040102B717001093874700F7
:1000E0001307F00F23A0E70013054017EFF05FF8A8
:1000F000232604FE6F0000018327C4FE93871700A8
:100100002326F4FE0327C4FEB78701009387F7690F
:10011000E3D4E7FEB71700101307100023A0E70091
:10012000232404FE6F000001832784FE93871700B9
:100130002324F4FE032784FEB78701009387F76921
:10014000E3D4E7FEB717001023A00700232204FE24
:100150006F000001832744FE938717002322F4FEDB
:10016000032744FEB78701009387F769E3D4E7FECE
:100170006FF05FFA48656C6C6F2066726F6D20528D
:080180004953432D56210A00EA
:00000001FF
